{
  "_format": "hh-sol-artifact-1",
  "contractName": "Carbon",
  "sourceName": "contracts/Carbon.sol",
  "abi": [
    {
      "inputs": [],
      "stateMutability": "nonpayable",
      "type": "constructor"
    },
    {
      "anonymous": false,
      "inputs": [
        {
          "indexed": true,
          "internalType": "address",
          "name": "owner",
          "type": "address"
        },
        {
          "indexed": true,
          "internalType": "address",
          "name": "approved",
          "type": "address"
        },
        {
          "indexed": true,
          "internalType": "uint256",
          "name": "tokenId",
          "type": "uint256"
        }
      ],
      "name": "Approval",
      "type": "event"
    },
    {
      "anonymous": false,
      "inputs": [
        {
          "indexed": true,
          "internalType": "address",
          "name": "owner",
          "type": "address"
        },
        {
          "indexed": true,
          "internalType": "address",
          "name": "operator",
          "type": "address"
        },
        {
          "indexed": false,
          "internalType": "bool",
          "name": "approved",
          "type": "bool"
        }
      ],
      "name": "ApprovalForAll",
      "type": "event"
    },
    {
      "anonymous": false,
      "inputs": [
        {
          "indexed": true,
          "internalType": "address",
          "name": "previousOwner",
          "type": "address"
        },
        {
          "indexed": true,
          "internalType": "address",
          "name": "newOwner",
          "type": "address"
        }
      ],
      "name": "OwnershipTransferred",
      "type": "event"
    },
    {
      "anonymous": false,
      "inputs": [
        {
          "indexed": true,
          "internalType": "address",
          "name": "from",
          "type": "address"
        },
        {
          "indexed": true,
          "internalType": "address",
          "name": "to",
          "type": "address"
        },
        {
          "indexed": true,
          "internalType": "uint256",
          "name": "tokenId",
          "type": "uint256"
        }
      ],
      "name": "Transfer",
      "type": "event"
    },
    {
      "inputs": [
        {
          "internalType": "address[]",
          "name": "_addresses",
          "type": "address[]"
        },
        {
          "internalType": "string[]",
          "name": "_tokenURI",
          "type": "string[]"
        }
      ],
      "name": "airdrop",
      "outputs": [],
      "stateMutability": "nonpayable",
      "type": "function"
    },
    {
      "inputs": [
        {
          "internalType": "address",
          "name": "to",
          "type": "address"
        },
        {
          "internalType": "uint256",
          "name": "tokenId",
          "type": "uint256"
        }
      ],
      "name": "approve",
      "outputs": [],
      "stateMutability": "nonpayable",
      "type": "function"
    },
    {
      "inputs": [
        {
          "internalType": "address",
          "name": "owner",
          "type": "address"
        }
      ],
      "name": "balanceOf",
      "outputs": [
        {
          "internalType": "uint256",
          "name": "",
          "type": "uint256"
        }
      ],
      "stateMutability": "view",
      "type": "function"
    },
    {
      "inputs": [
        {
          "internalType": "uint256",
          "name": "tokenId",
          "type": "uint256"
        }
      ],
      "name": "burn",
      "outputs": [],
      "stateMutability": "nonpayable",
      "type": "function"
    },
    {
      "inputs": [
        {
          "internalType": "uint256",
          "name": "tokenId",
          "type": "uint256"
        }
      ],
      "name": "getApproved",
      "outputs": [
        {
          "internalType": "address",
          "name": "",
          "type": "address"
        }
      ],
      "stateMutability": "view",
      "type": "function"
    },
    {
      "inputs": [
        {
          "internalType": "address",
          "name": "owner",
          "type": "address"
        },
        {
          "internalType": "address",
          "name": "operator",
          "type": "address"
        }
      ],
      "name": "isApprovedForAll",
      "outputs": [
        {
          "internalType": "bool",
          "name": "",
          "type": "bool"
        }
      ],
      "stateMutability": "view",
      "type": "function"
    },
    {
      "inputs": [],
      "name": "name",
      "outputs": [
        {
          "internalType": "string",
          "name": "",
          "type": "string"
        }
      ],
      "stateMutability": "view",
      "type": "function"
    },
    {
      "inputs": [],
      "name": "owner",
      "outputs": [
        {
          "internalType": "address",
          "name": "",
          "type": "address"
        }
      ],
      "stateMutability": "view",
      "type": "function"
    },
    {
      "inputs": [
        {
          "internalType": "uint256",
          "name": "tokenId",
          "type": "uint256"
        }
      ],
      "name": "ownerOf",
      "outputs": [
        {
          "internalType": "address",
          "name": "",
          "type": "address"
        }
      ],
      "stateMutability": "view",
      "type": "function"
    },
    {
      "inputs": [],
      "name": "renounceOwnership",
      "outputs": [],
      "stateMutability": "nonpayable",
      "type": "function"
    },
    {
      "inputs": [
        {
          "internalType": "address",
          "name": "to",
          "type": "address"
        },
        {
          "internalType": "string",
          "name": "uri",
          "type": "string"
        }
      ],
      "name": "safeMint",
      "outputs": [],
      "stateMutability": "nonpayable",
      "type": "function"
    },
    {
      "inputs": [
        {
          "internalType": "address",
          "name": "from",
          "type": "address"
        },
        {
          "internalType": "address",
          "name": "to",
          "type": "address"
        },
        {
          "internalType": "uint256",
          "name": "tokenId",
          "type": "uint256"
        }
      ],
      "name": "safeTransferFrom",
      "outputs": [],
      "stateMutability": "nonpayable",
      "type": "function"
    },
    {
      "inputs": [
        {
          "internalType": "address",
          "name": "from",
          "type": "address"
        },
        {
          "internalType": "address",
          "name": "to",
          "type": "address"
        },
        {
          "internalType": "uint256",
          "name": "tokenId",
          "type": "uint256"
        },
        {
          "internalType": "bytes",
          "name": "data",
          "type": "bytes"
        }
      ],
      "name": "safeTransferFrom",
      "outputs": [],
      "stateMutability": "nonpayable",
      "type": "function"
    },
    {
      "inputs": [
        {
          "internalType": "address",
          "name": "operator",
          "type": "address"
        },
        {
          "internalType": "bool",
          "name": "approved",
          "type": "bool"
        }
      ],
      "name": "setApprovalForAll",
      "outputs": [],
      "stateMutability": "nonpayable",
      "type": "function"
    },
    {
      "inputs": [
        {
          "internalType": "bytes4",
          "name": "interfaceId",
          "type": "bytes4"
        }
      ],
      "name": "supportsInterface",
      "outputs": [
        {
          "internalType": "bool",
          "name": "",
          "type": "bool"
        }
      ],
      "stateMutability": "view",
      "type": "function"
    },
    {
      "inputs": [],
      "name": "symbol",
      "outputs": [
        {
          "internalType": "string",
          "name": "",
          "type": "string"
        }
      ],
      "stateMutability": "view",
      "type": "function"
    },
    {
      "inputs": [
        {
          "internalType": "uint256",
          "name": "tokenId",
          "type": "uint256"
        }
      ],
      "name": "tokenURI",
      "outputs": [
        {
          "internalType": "string",
          "name": "",
          "type": "string"
        }
      ],
      "stateMutability": "view",
      "type": "function"
    },
    {
      "inputs": [
        {
          "internalType": "address",
          "name": "from",
          "type": "address"
        },
        {
          "internalType": "address",
          "name": "to",
          "type": "address"
        },
        {
          "internalType": "uint256",
          "name": "tokenId",
          "type": "uint256"
        }
      ],
      "name": "transferFrom",
      "outputs": [],
      "stateMutability": "nonpayable",
      "type": "function"
    },
    {
      "inputs": [
        {
          "internalType": "address",
          "name": "newOwner",
          "type": "address"
        }
      ],
      "name": "transferOwnership",
      "outputs": [],
      "stateMutability": "nonpayable",
      "type": "function"
    }
  ],
  "bytecode": "0x60806040523480156200001157600080fd5b506040518060400160405280600681526020017f436172626f6e00000000000000000000000000000000000000000000000000008152506040518060400160405280600481526020017f4352424e0000000000000000000000000000000000000000000000000000000081525081600090816200008f919062000412565b508060019081620000a1919062000412565b505050620000c4620000b8620000ca60201b60201c565b620000d260201b60201c565b620004f9565b600033905090565b6000600760009054906101000a900473ffffffffffffffffffffffffffffffffffffffff16905081600760006101000a81548173ffffffffffffffffffffffffffffffffffffffff021916908373ffffffffffffffffffffffffffffffffffffffff1602179055508173ffffffffffffffffffffffffffffffffffffffff168173ffffffffffffffffffffffffffffffffffffffff167f8be0079c531659141344cd1fd0a4f28419497f9722a3daafe3b4186f6b6457e060405160405180910390a35050565b600081519050919050565b7f4e487b7100000000000000000000000000000000000000000000000000000000600052604160045260246000fd5b7f4e487b7100000000000000000000000000000000000000000000000000000000600052602260045260246000fd5b600060028204905060018216806200021a57607f821691505b60208210810362000230576200022f620001d2565b5b50919050565b60008190508160005260206000209050919050565b60006020601f8301049050919050565b600082821b905092915050565b6000600883026200029a7fffffffffffffffffffffffffffffffffffffffffffffffffffffffffffffffff826200025b565b620002a686836200025b565b95508019841693508086168417925050509392505050565b6000819050919050565b6000819050919050565b6000620002f3620002ed620002e784620002be565b620002c8565b620002be565b9050919050565b6000819050919050565b6200030f83620002d2565b620003276200031e82620002fa565b84845462000268565b825550505050565b600090565b6200033e6200032f565b6200034b81848462000304565b505050565b5b8181101562000373576200036760008262000334565b60018101905062000351565b5050565b601f821115620003c2576200038c8162000236565b62000397846200024b565b81016020851015620003a7578190505b620003bf620003b6856200024b565b83018262000350565b50505b505050565b600082821c905092915050565b6000620003e760001984600802620003c7565b1980831691505092915050565b6000620004028383620003d4565b9150826002028217905092915050565b6200041d8262000198565b67ffffffffffffffff811115620004395762000438620001a3565b5b62000445825462000201565b6200045282828562000377565b600060209050601f8311600181146200048a576000841562000475578287015190505b620004818582620003f4565b865550620004f1565b601f1984166200049a8662000236565b60005b82811015620004c4578489015182556001820191506020850194506020810190506200049d565b86831015620004e45784890151620004e0601f891682620003d4565b8355505b6001600288020188555050505b505050505050565b61343980620005096000396000f3fe608060405234801561001057600080fd5b50600436106101215760003560e01c8063715018a6116100ad578063b88d4fde11610071578063b88d4fde146102f2578063c87b56dd1461030e578063d204c45e1461033e578063e985e9c51461035a578063f2fde38b1461038a57610121565b8063715018a6146102745780638da5cb5b1461027e57806395d89b411461029c5780639eabbeb2146102ba578063a22cb465146102d657610121565b806323b872dd116100f457806323b872dd146101c057806342842e0e146101dc57806342966c68146101f85780636352211e1461021457806370a082311461024457610121565b806301ffc9a71461012657806306fdde0314610156578063081812fc14610174578063095ea7b3146101a4575b600080fd5b610140600480360381019061013b9190611f63565b6103a6565b60405161014d9190611fab565b60405180910390f35b61015e610488565b60405161016b9190612056565b60405180910390f35b61018e600480360381019061018991906120ae565b61051a565b60405161019b919061211c565b60405180910390f35b6101be60048036038101906101b99190612163565b610560565b005b6101da60048036038101906101d591906121a3565b610677565b005b6101f660048036038101906101f191906121a3565b6106d7565b005b610212600480360381019061020d91906120ae565b6106f7565b005b61022e600480360381019061022991906120ae565b610753565b60405161023b919061211c565b60405180910390f35b61025e600480360381019061025991906121f6565b6107d9565b60405161026b9190612232565b60405180910390f35b61027c610890565b005b6102866108a4565b604051610293919061211c565b60405180910390f35b6102a46108ce565b6040516102b19190612056565b60405180910390f35b6102d460048036038101906102cf919061252b565b610960565b005b6102f060048036038101906102eb91906125cf565b6109d0565b005b61030c600480360381019061030791906126b0565b6109e6565b005b610328600480360381019061032391906120ae565b610a48565b6040516103359190612056565b60405180910390f35b61035860048036038101906103539190612733565b610a5a565b005b610374600480360381019061036f919061278f565b610a93565b6040516103819190611fab565b60405180910390f35b6103a4600480360381019061039f91906121f6565b610b27565b005b60007f80ac58cd000000000000000000000000000000000000000000000000000000007bffffffffffffffffffffffffffffffffffffffffffffffffffffffff1916827bffffffffffffffffffffffffffffffffffffffffffffffffffffffff1916148061047157507f5b5e139f000000000000000000000000000000000000000000000000000000007bffffffffffffffffffffffffffffffffffffffffffffffffffffffff1916827bffffffffffffffffffffffffffffffffffffffffffffffffffffffff1916145b80610481575061048082610baa565b5b9050919050565b606060008054610497906127fe565b80601f01602080910402602001604051908101604052809291908181526020018280546104c3906127fe565b80156105105780601f106104e557610100808354040283529160200191610510565b820191906000526020600020905b8154815290600101906020018083116104f357829003601f168201915b5050505050905090565b600061052582610c14565b6004600083815260200190815260200160002060009054906101000a900473ffffffffffffffffffffffffffffffffffffffff169050919050565b600061056b82610753565b90508073ffffffffffffffffffffffffffffffffffffffff168373ffffffffffffffffffffffffffffffffffffffff16036105db576040517f08c379a00000000000000000000000000000000000000000000000000000000081526004016105d2906128a1565b60405180910390fd5b8073ffffffffffffffffffffffffffffffffffffffff166105fa610c5f565b73ffffffffffffffffffffffffffffffffffffffff161480610629575061062881610623610c5f565b610a93565b5b610668576040517f08c379a000000000000000000000000000000000000000000000000000000000815260040161065f90612933565b60405180910390fd5b6106728383610c67565b505050565b610688610682610c5f565b82610d20565b6106c7576040517f08c379a00000000000000000000000000000000000000000000000000000000081526004016106be906129c5565b60405180910390fd5b6106d2838383610db5565b505050565b6106f2838383604051806020016040528060008152506109e6565b505050565b610708610702610c5f565b82610d20565b610747576040517f08c379a000000000000000000000000000000000000000000000000000000000815260040161073e906129c5565b60405180910390fd5b610750816110ae565b50565b60008061075f836110ba565b9050600073ffffffffffffffffffffffffffffffffffffffff168173ffffffffffffffffffffffffffffffffffffffff16036107d0576040517f08c379a00000000000000000000000000000000000000000000000000000000081526004016107c790612a31565b60405180910390fd5b80915050919050565b60008073ffffffffffffffffffffffffffffffffffffffff168273ffffffffffffffffffffffffffffffffffffffff1603610849576040517f08c379a000000000000000000000000000000000000000000000000000000000815260040161084090612ac3565b60405180910390fd5b600360008373ffffffffffffffffffffffffffffffffffffffff1673ffffffffffffffffffffffffffffffffffffffff168152602001908152602001600020549050919050565b6108986110f7565b6108a26000611175565b565b6000600760009054906101000a900473ffffffffffffffffffffffffffffffffffffffff16905090565b6060600180546108dd906127fe565b80601f0160208091040260200160405190810160405280929190818152602001828054610909906127fe565b80156109565780601f1061092b57610100808354040283529160200191610956565b820191906000526020600020905b81548152906001019060200180831161093957829003601f168201915b5050505050905090565b6109686110f7565b60008251905060005b818110156109ca576109b784828151811061098f5761098e612ae3565b5b60200260200101518483815181106109aa576109a9612ae3565b5b6020026020010151610a5a565b80806109c290612b41565b915050610971565b50505050565b6109e26109db610c5f565b838361123b565b5050565b6109f76109f1610c5f565b83610d20565b610a36576040517f08c379a0000000000000000000000000000000000000000000000000000000008152600401610a2d906129c5565b60405180910390fd5b610a42848484846113a7565b50505050565b6060610a5382611403565b9050919050565b610a626110f7565b6000610a6e6008611515565b9050610a7a6008611523565b610a848382611539565b610a8e8183611557565b505050565b6000600560008473ffffffffffffffffffffffffffffffffffffffff1673ffffffffffffffffffffffffffffffffffffffff16815260200190815260200160002060008373ffffffffffffffffffffffffffffffffffffffff1673ffffffffffffffffffffffffffffffffffffffff16815260200190815260200160002060009054906101000a900460ff16905092915050565b610b2f6110f7565b600073ffffffffffffffffffffffffffffffffffffffff168173ffffffffffffffffffffffffffffffffffffffff1603610b9e576040517f08c379a0000000000000000000000000000000000000000000000000000000008152600401610b9590612bfb565b60405180910390fd5b610ba781611175565b50565b60007f01ffc9a7000000000000000000000000000000000000000000000000000000007bffffffffffffffffffffffffffffffffffffffffffffffffffffffff1916827bffffffffffffffffffffffffffffffffffffffffffffffffffffffff1916149050919050565b610c1d816115c4565b610c5c576040517f08c379a0000000000000000000000000000000000000000000000000000000008152600401610c5390612a31565b60405180910390fd5b50565b600033905090565b816004600083815260200190815260200160002060006101000a81548173ffffffffffffffffffffffffffffffffffffffff021916908373ffffffffffffffffffffffffffffffffffffffff160217905550808273ffffffffffffffffffffffffffffffffffffffff16610cda83610753565b73ffffffffffffffffffffffffffffffffffffffff167f8c5be1e5ebec7d5bd14f71427d1e84f3dd0314c0f7b2291e5b200ac8c7c3b92560405160405180910390a45050565b600080610d2c83610753565b90508073ffffffffffffffffffffffffffffffffffffffff168473ffffffffffffffffffffffffffffffffffffffff161480610d6e5750610d6d8185610a93565b5b80610dac57508373ffffffffffffffffffffffffffffffffffffffff16610d948461051a565b73ffffffffffffffffffffffffffffffffffffffff16145b91505092915050565b8273ffffffffffffffffffffffffffffffffffffffff16610dd582610753565b73ffffffffffffffffffffffffffffffffffffffff1614610e2b576040517f08c379a0000000000000000000000000000000000000000000000000000000008152600401610e2290612c8d565b60405180910390fd5b600073ffffffffffffffffffffffffffffffffffffffff168273ffffffffffffffffffffffffffffffffffffffff1603610e9a576040517f08c379a0000000000000000000000000000000000000000000000000000000008152600401610e9190612d1f565b60405180910390fd5b610ea78383836001611605565b8273ffffffffffffffffffffffffffffffffffffffff16610ec782610753565b73ffffffffffffffffffffffffffffffffffffffff1614610f1d576040517f08c379a0000000000000000000000000000000000000000000000000000000008152600401610f1490612c8d565b60405180910390fd5b6004600082815260200190815260200160002060006101000a81549073ffffffffffffffffffffffffffffffffffffffff02191690556001600360008573ffffffffffffffffffffffffffffffffffffffff1673ffffffffffffffffffffffffffffffffffffffff168152602001908152602001600020600082825403925050819055506001600360008473ffffffffffffffffffffffffffffffffffffffff1673ffffffffffffffffffffffffffffffffffffffff16815260200190815260200160002060008282540192505081905550816002600083815260200190815260200160002060006101000a81548173ffffffffffffffffffffffffffffffffffffffff021916908373ffffffffffffffffffffffffffffffffffffffff160217905550808273ffffffffffffffffffffffffffffffffffffffff168473ffffffffffffffffffffffffffffffffffffffff167fddf252ad1be2c89b69c2b068fc378daa952ba7f163c4a11628f55a4df523b3ef60405160405180910390a46110a9838383600161160b565b505050565b6110b781611611565b50565b60006002600083815260200190815260200160002060009054906101000a900473ffffffffffffffffffffffffffffffffffffffff169050919050565b6110ff610c5f565b73ffffffffffffffffffffffffffffffffffffffff1661111d6108a4565b73ffffffffffffffffffffffffffffffffffffffff1614611173576040517f08c379a000000000000000000000000000000000000000000000000000000000815260040161116a90612d8b565b60405180910390fd5b565b6000600760009054906101000a900473ffffffffffffffffffffffffffffffffffffffff16905081600760006101000a81548173ffffffffffffffffffffffffffffffffffffffff021916908373ffffffffffffffffffffffffffffffffffffffff1602179055508173ffffffffffffffffffffffffffffffffffffffff168173ffffffffffffffffffffffffffffffffffffffff167f8be0079c531659141344cd1fd0a4f28419497f9722a3daafe3b4186f6b6457e060405160405180910390a35050565b8173ffffffffffffffffffffffffffffffffffffffff168373ffffffffffffffffffffffffffffffffffffffff16036112a9576040517f08c379a00000000000000000000000000000000000000000000000000000000081526004016112a090612df7565b60405180910390fd5b80600560008573ffffffffffffffffffffffffffffffffffffffff1673ffffffffffffffffffffffffffffffffffffffff16815260200190815260200160002060008473ffffffffffffffffffffffffffffffffffffffff1673ffffffffffffffffffffffffffffffffffffffff16815260200190815260200160002060006101000a81548160ff0219169083151502179055508173ffffffffffffffffffffffffffffffffffffffff168373ffffffffffffffffffffffffffffffffffffffff167f17307eab39ab6107e8899845ad3d59bd9653f200f220920489ca2b5937696c318360405161139a9190611fab565b60405180910390a3505050565b6113b2848484610db5565b6113be84848484611664565b6113fd576040517f08c379a00000000000000000000000000000000000000000000000000000000081526004016113f490612e89565b60405180910390fd5b50505050565b606061140e82610c14565b600060066000848152602001908152602001600020805461142e906127fe565b80601f016020809104026020016040519081016040528092919081815260200182805461145a906127fe565b80156114a75780601f1061147c576101008083540402835291602001916114a7565b820191906000526020600020905b81548152906001019060200180831161148a57829003601f168201915b5050505050905060006114b86117eb565b905060008151036114cd578192505050611510565b6000825111156115025780826040516020016114ea929190612ee5565b60405160208183030381529060405292505050611510565b61150b84611828565b925050505b919050565b600081600001549050919050565b6001816000016000828254019250508190555050565b611553828260405180602001604052806000815250611890565b5050565b611560826115c4565b61159f576040517f08c379a000000000000000000000000000000000000000000000000000000000815260040161159690612f7b565b60405180910390fd5b806006600084815260200190815260200160002090816115bf9190613147565b505050565b60008073ffffffffffffffffffffffffffffffffffffffff166115e6836110ba565b73ffffffffffffffffffffffffffffffffffffffff1614159050919050565b50505050565b50505050565b61161a816118eb565b600060066000838152602001908152602001600020805461163a906127fe565b905014611661576006600082815260200190815260200160002060006116609190611e9a565b5b50565b60006116858473ffffffffffffffffffffffffffffffffffffffff16611a39565b156117de578373ffffffffffffffffffffffffffffffffffffffff1663150b7a026116ae610c5f565b8786866040518563ffffffff1660e01b81526004016116d0949392919061326e565b6020604051808303816000875af192505050801561170c57506040513d601f19601f8201168201806040525081019061170991906132cf565b60015b61178e573d806000811461173c576040519150601f19603f3d011682016040523d82523d6000602084013e611741565b606091505b506000815103611786576040517f08c379a000000000000000000000000000000000000000000000000000000000815260040161177d90612e89565b60405180910390fd5b805181602001fd5b63150b7a0260e01b7bffffffffffffffffffffffffffffffffffffffffffffffffffffffff1916817bffffffffffffffffffffffffffffffffffffffffffffffffffffffff1916149150506117e3565b600190505b949350505050565b60606040518060400160405280601681526020017f68747470733a2f2f636172626f6e2e6d61726b65742f00000000000000000000815250905090565b606061183382610c14565b600061183d6117eb565b9050600081511161185d5760405180602001604052806000815250611888565b8061186784611a5c565b604051602001611878929190612ee5565b6040516020818303038152906040525b915050919050565b61189a8383611b2a565b6118a76000848484611664565b6118e6576040517f08c379a00000000000000000000000000000000000000000000000000000000081526004016118dd90612e89565b60405180910390fd5b505050565b60006118f682610753565b9050611906816000846001611605565b61190f82610753565b90506004600083815260200190815260200160002060006101000a81549073ffffffffffffffffffffffffffffffffffffffff02191690556001600360008373ffffffffffffffffffffffffffffffffffffffff1673ffffffffffffffffffffffffffffffffffffffff168152602001908152602001600020600082825403925050819055506002600083815260200190815260200160002060006101000a81549073ffffffffffffffffffffffffffffffffffffffff021916905581600073ffffffffffffffffffffffffffffffffffffffff168273ffffffffffffffffffffffffffffffffffffffff167fddf252ad1be2c89b69c2b068fc378daa952ba7f163c4a11628f55a4df523b3ef60405160405180910390a4611a3581600084600161160b565b5050565b6000808273ffffffffffffffffffffffffffffffffffffffff163b119050919050565b606060006001611a6b84611d47565b01905060008167ffffffffffffffff811115611a8a57611a89612252565b5b6040519080825280601f01601f191660200182016040528015611abc5781602001600182028036833780820191505090505b509050600082602001820190505b600115611b1f578080600190039150507f3031323334353637383961626364656600000000000000000000000000000000600a86061a8153600a8581611b1357611b126132fc565b5b04945060008503611aca575b819350505050919050565b600073ffffffffffffffffffffffffffffffffffffffff168273ffffffffffffffffffffffffffffffffffffffff1603611b99576040517f08c379a0000000000000000000000000000000000000000000000000000000008152600401611b9090613377565b60405180910390fd5b611ba2816115c4565b15611be2576040517f08c379a0000000000000000000000000000000000000000000000000000000008152600401611bd9906133e3565b60405180910390fd5b611bf0600083836001611605565b611bf9816115c4565b15611c39576040517f08c379a0000000000000000000000000000000000000000000000000000000008152600401611c30906133e3565b60405180910390fd5b6001600360008473ffffffffffffffffffffffffffffffffffffffff1673ffffffffffffffffffffffffffffffffffffffff16815260200190815260200160002060008282540192505081905550816002600083815260200190815260200160002060006101000a81548173ffffffffffffffffffffffffffffffffffffffff021916908373ffffffffffffffffffffffffffffffffffffffff160217905550808273ffffffffffffffffffffffffffffffffffffffff16600073ffffffffffffffffffffffffffffffffffffffff167fddf252ad1be2c89b69c2b068fc378daa952ba7f163c4a11628f55a4df523b3ef60405160405180910390a4611d4360008383600161160b565b5050565b600080600090507a184f03e93ff9f4daa797ed6e38ed64bf6a1f0100000000000000008310611da5577a184f03e93ff9f4daa797ed6e38ed64bf6a1f0100000000000000008381611d9b57611d9a6132fc565b5b0492506040810190505b6d04ee2d6d415b85acef81000000008310611de2576d04ee2d6d415b85acef81000000008381611dd857611dd76132fc565b5b0492506020810190505b662386f26fc100008310611e1157662386f26fc100008381611e0757611e066132fc565b5b0492506010810190505b6305f5e1008310611e3a576305f5e1008381611e3057611e2f6132fc565b5b0492506008810190505b6127108310611e5f576127108381611e5557611e546132fc565b5b0492506004810190505b60648310611e825760648381611e7857611e776132fc565b5b0492506002810190505b600a8310611e91576001810190505b80915050919050565b508054611ea6906127fe565b6000825580601f10611eb85750611ed7565b601f016020900490600052602060002090810190611ed69190611eda565b5b50565b5b80821115611ef3576000816000905550600101611edb565b5090565b6000604051905090565b600080fd5b600080fd5b60007fffffffff0000000000000000000000000000000000000000000000000000000082169050919050565b611f4081611f0b565b8114611f4b57600080fd5b50565b600081359050611f5d81611f37565b92915050565b600060208284031215611f7957611f78611f01565b5b6000611f8784828501611f4e565b91505092915050565b60008115159050919050565b611fa581611f90565b82525050565b6000602082019050611fc06000830184611f9c565b92915050565b600081519050919050565b600082825260208201905092915050565b60005b83811015612000578082015181840152602081019050611fe5565b60008484015250505050565b6000601f19601f8301169050919050565b600061202882611fc6565b6120328185611fd1565b9350612042818560208601611fe2565b61204b8161200c565b840191505092915050565b60006020820190508181036000830152612070818461201d565b905092915050565b6000819050919050565b61208b81612078565b811461209657600080fd5b50565b6000813590506120a881612082565b92915050565b6000602082840312156120c4576120c3611f01565b5b60006120d284828501612099565b91505092915050565b600073ffffffffffffffffffffffffffffffffffffffff82169050919050565b6000612106826120db565b9050919050565b612116816120fb565b82525050565b6000602082019050612131600083018461210d565b92915050565b612140816120fb565b811461214b57600080fd5b50565b60008135905061215d81612137565b92915050565b6000806040838503121561217a57612179611f01565b5b60006121888582860161214e565b925050602061219985828601612099565b9150509250929050565b6000806000606084860312156121bc576121bb611f01565b5b60006121ca8682870161214e565b93505060206121db8682870161214e565b92505060406121ec86828701612099565b9150509250925092565b60006020828403121561220c5761220b611f01565b5b600061221a8482850161214e565b91505092915050565b61222c81612078565b82525050565b60006020820190506122476000830184612223565b92915050565b600080fd5b7f4e487b7100000000000000000000000000000000000000000000000000000000600052604160045260246000fd5b61228a8261200c565b810181811067ffffffffffffffff821117156122a9576122a8612252565b5b80604052505050565b60006122bc611ef7565b90506122c88282612281565b919050565b600067ffffffffffffffff8211156122e8576122e7612252565b5b602082029050602081019050919050565b600080fd5b600061231161230c846122cd565b6122b2565b90508083825260208201905060208402830185811115612334576123336122f9565b5b835b8181101561235d5780612349888261214e565b845260208401935050602081019050612336565b5050509392505050565b600082601f83011261237c5761237b61224d565b5b813561238c8482602086016122fe565b91505092915050565b600067ffffffffffffffff8211156123b0576123af612252565b5b602082029050602081019050919050565b600080fd5b600067ffffffffffffffff8211156123e1576123e0612252565b5b6123ea8261200c565b9050602081019050919050565b82818337600083830152505050565b6000612419612414846123c6565b6122b2565b905082815260208101848484011115612435576124346123c1565b5b6124408482856123f7565b509392505050565b600082601f83011261245d5761245c61224d565b5b813561246d848260208601612406565b91505092915050565b600061248961248484612395565b6122b2565b905080838252602082019050602084028301858111156124ac576124ab6122f9565b5b835b818110156124f357803567ffffffffffffffff8111156124d1576124d061224d565b5b8086016124de8982612448565b855260208501945050506020810190506124ae565b5050509392505050565b600082601f8301126125125761251161224d565b5b8135612522848260208601612476565b91505092915050565b6000806040838503121561254257612541611f01565b5b600083013567ffffffffffffffff8111156125605761255f611f06565b5b61256c85828601612367565b925050602083013567ffffffffffffffff81111561258d5761258c611f06565b5b612599858286016124fd565b9150509250929050565b6125ac81611f90565b81146125b757600080fd5b50565b6000813590506125c9816125a3565b92915050565b600080604083850312156125e6576125e5611f01565b5b60006125f48582860161214e565b9250506020612605858286016125ba565b9150509250929050565b600067ffffffffffffffff82111561262a57612629612252565b5b6126338261200c565b9050602081019050919050565b600061265361264e8461260f565b6122b2565b90508281526020810184848401111561266f5761266e6123c1565b5b61267a8482856123f7565b509392505050565b600082601f8301126126975761269661224d565b5b81356126a7848260208601612640565b91505092915050565b600080600080608085870312156126ca576126c9611f01565b5b60006126d88782880161214e565b94505060206126e98782880161214e565b93505060406126fa87828801612099565b925050606085013567ffffffffffffffff81111561271b5761271a611f06565b5b61272787828801612682565b91505092959194509250565b6000806040838503121561274a57612749611f01565b5b60006127588582860161214e565b925050602083013567ffffffffffffffff81111561277957612778611f06565b5b61278585828601612448565b9150509250929050565b600080604083850312156127a6576127a5611f01565b5b60006127b48582860161214e565b92505060206127c58582860161214e565b9150509250929050565b7f4e487b7100000000000000000000000000000000000000000000000000000000600052602260045260246000fd5b6000600282049050600182168061281657607f821691505b602082108103612829576128286127cf565b5b50919050565b7f4552433732313a20617070726f76616c20746f2063757272656e74206f776e6560008201527f7200000000000000000000000000000000000000000000000000000000000000602082015250565b600061288b602183611fd1565b91506128968261282f565b604082019050919050565b600060208201905081810360008301526128ba8161287e565b9050919050565b7f4552433732313a20617070726f76652063616c6c6572206973206e6f7420746f60008201527f6b656e206f776e6572206f7220617070726f76656420666f7220616c6c000000602082015250565b600061291d603d83611fd1565b9150612928826128c1565b604082019050919050565b6000602082019050818103600083015261294c81612910565b9050919050565b7f4552433732313a2063616c6c6572206973206e6f7420746f6b656e206f776e6560008201527f72206f7220617070726f76656400000000000000000000000000000000000000602082015250565b60006129af602d83611fd1565b91506129ba82612953565b604082019050919050565b600060208201905081810360008301526129de816129a2565b9050919050565b7f4552433732313a20696e76616c696420746f6b656e2049440000000000000000600082015250565b6000612a1b601883611fd1565b9150612a26826129e5565b602082019050919050565b60006020820190508181036000830152612a4a81612a0e565b9050919050565b7f4552433732313a2061646472657373207a65726f206973206e6f74206120766160008201527f6c6964206f776e65720000000000000000000000000000000000000000000000602082015250565b6000612aad602983611fd1565b9150612ab882612a51565b604082019050919050565b60006020820190508181036000830152612adc81612aa0565b9050919050565b7f4e487b7100000000000000000000000000000000000000000000000000000000600052603260045260246000fd5b7f4e487b7100000000000000000000000000000000000000000000000000000000600052601160045260246000fd5b6000612b4c82612078565b91507fffffffffffffffffffffffffffffffffffffffffffffffffffffffffffffffff8203612b7e57612b7d612b12565b5b600182019050919050565b7f4f776e61626c653a206e6577206f776e657220697320746865207a65726f206160008201527f6464726573730000000000000000000000000000000000000000000000000000602082015250565b6000612be5602683611fd1565b9150612bf082612b89565b604082019050919050565b60006020820190508181036000830152612c1481612bd8565b9050919050565b7f4552433732313a207472616e736665722066726f6d20696e636f72726563742060008201527f6f776e6572000000000000000000000000000000000000000000000000000000602082015250565b6000612c77602583611fd1565b9150612c8282612c1b565b604082019050919050565b60006020820190508181036000830152612ca681612c6a565b9050919050565b7f4552433732313a207472616e7366657220746f20746865207a65726f2061646460008201527f7265737300000000000000000000000000000000000000000000000000000000602082015250565b6000612d09602483611fd1565b9150612d1482612cad565b604082019050919050565b60006020820190508181036000830152612d3881612cfc565b9050919050565b7f4f776e61626c653a2063616c6c6572206973206e6f7420746865206f776e6572600082015250565b6000612d75602083611fd1565b9150612d8082612d3f565b602082019050919050565b60006020820190508181036000830152612da481612d68565b9050919050565b7f4552433732313a20617070726f766520746f2063616c6c657200000000000000600082015250565b6000612de1601983611fd1565b9150612dec82612dab565b602082019050919050565b60006020820190508181036000830152612e1081612dd4565b9050919050565b7f4552433732313a207472616e7366657220746f206e6f6e20455243373231526560008201527f63656976657220696d706c656d656e7465720000000000000000000000000000602082015250565b6000612e73603283611fd1565b9150612e7e82612e17565b604082019050919050565b60006020820190508181036000830152612ea281612e66565b9050919050565b600081905092915050565b6000612ebf82611fc6565b612ec98185612ea9565b9350612ed9818560208601611fe2565b80840191505092915050565b6000612ef18285612eb4565b9150612efd8284612eb4565b91508190509392505050565b7f45524337323155524953746f726167653a2055524920736574206f66206e6f6e60008201527f6578697374656e7420746f6b656e000000000000000000000000000000000000602082015250565b6000612f65602e83611fd1565b9150612f7082612f09565b604082019050919050565b60006020820190508181036000830152612f9481612f58565b9050919050565b60008190508160005260206000209050919050565b60006020601f8301049050919050565b600082821b905092915050565b600060088302612ffd7fffffffffffffffffffffffffffffffffffffffffffffffffffffffffffffffff82612fc0565b6130078683612fc0565b95508019841693508086168417925050509392505050565b6000819050919050565b600061304461303f61303a84612078565b61301f565b612078565b9050919050565b6000819050919050565b61305e83613029565b61307261306a8261304b565b848454612fcd565b825550505050565b600090565b61308761307a565b613092818484613055565b505050565b5b818110156130b6576130ab60008261307f565b600181019050613098565b5050565b601f8211156130fb576130cc81612f9b565b6130d584612fb0565b810160208510156130e4578190505b6130f86130f085612fb0565b830182613097565b50505b505050565b600082821c905092915050565b600061311e60001984600802613100565b1980831691505092915050565b6000613137838361310d565b9150826002028217905092915050565b61315082611fc6565b67ffffffffffffffff81111561316957613168612252565b5b61317382546127fe565b61317e8282856130ba565b600060209050601f8311600181146131b1576000841561319f578287015190505b6131a9858261312b565b865550613211565b601f1984166131bf86612f9b565b60005b828110156131e7578489015182556001820191506020850194506020810190506131c2565b868310156132045784890151613200601f89168261310d565b8355505b6001600288020188555050505b505050505050565b600081519050919050565b600082825260208201905092915050565b600061324082613219565b61324a8185613224565b935061325a818560208601611fe2565b6132638161200c565b840191505092915050565b6000608082019050613283600083018761210d565b613290602083018661210d565b61329d6040830185612223565b81810360608301526132af8184613235565b905095945050505050565b6000815190506132c981611f37565b92915050565b6000602082840312156132e5576132e4611f01565b5b60006132f3848285016132ba565b91505092915050565b7f4e487b7100000000000000000000000000000000000000000000000000000000600052601260045260246000fd5b7f4552433732313a206d696e7420746f20746865207a65726f2061646472657373600082015250565b6000613361602083611fd1565b915061336c8261332b565b602082019050919050565b6000602082019050818103600083015261339081613354565b9050919050565b7f4552433732313a20746f6b656e20616c7265616479206d696e74656400000000600082015250565b60006133cd601c83611fd1565b91506133d882613397565b602082019050919050565b600060208201905081810360008301526133fc816133c0565b905091905056fea26469706673582212204fbdcca6900310416950cabafd0d1c5265e9d3ef94806b3ae92e25911e813e2d64736f6c63430008120033",
  "linkReferences": {},
  "deployedLinkReferences": {}
}